{
  "contractName": "HospitalBlockchain",
  "abi": [
    {
      "anonymous": false,
      "inputs": [
        {
          "indexed": false,
          "internalType": "string",
          "name": "name",
          "type": "string"
        },
        {
          "indexed": false,
          "internalType": "string",
          "name": "location",
          "type": "string"
        },
        {
          "indexed": false,
          "internalType": "address",
          "name": "hospitalAddress",
          "type": "address"
        }
      ],
      "name": "HospitalRegistered",
      "type": "event"
    },
    {
      "anonymous": false,
      "inputs": [
        {
          "indexed": false,
          "internalType": "string",
          "name": "name",
          "type": "string"
        },
        {
          "indexed": false,
          "internalType": "string",
          "name": "location",
          "type": "string"
        },
        {
          "indexed": false,
          "internalType": "address",
          "name": "hospitalAddress",
          "type": "address"
        }
      ],
      "name": "NearestHospitalFound",
      "type": "event"
    },
    {
      "inputs": [
        {
          "internalType": "uint256",
          "name": "",
          "type": "uint256"
        }
      ],
      "name": "hospitals",
      "outputs": [
        {
          "internalType": "string",
          "name": "name",
          "type": "string"
        },
        {
          "internalType": "string",
          "name": "location",
          "type": "string"
        },
        {
          "internalType": "address",
          "name": "hospitalAddress",
          "type": "address"
        }
      ],
      "stateMutability": "view",
      "type": "function",
      "constant": true
    },
    {
      "inputs": [
        {
          "internalType": "string",
          "name": "name",
          "type": "string"
        },
        {
          "internalType": "string",
          "name": "location",
          "type": "string"
        }
      ],
      "name": "registerHospital",
      "outputs": [],
      "stateMutability": "nonpayable",
      "type": "function"
    },
    {
      "inputs": [
        {
          "internalType": "string",
          "name": "userLocation",
          "type": "string"
        }
      ],
      "name": "findNearestHospital",
      "outputs": [
        {
          "internalType": "string",
          "name": "",
          "type": "string"
        }
      ],
      "stateMutability": "view",
      "type": "function",
      "constant": true
    },
    {
      "inputs": [],
      "name": "getHospitals",
      "outputs": [
        {
          "components": [
            {
              "internalType": "string",
              "name": "name",
              "type": "string"
            },
            {
              "internalType": "string",
              "name": "location",
              "type": "string"
            },
            {
              "internalType": "address",
              "name": "hospitalAddress",
              "type": "address"
            }
          ],
          "internalType": "struct HospitalBlockchain.Hospital[]",
          "name": "",
          "type": "tuple[]"
        }
      ],
      "stateMutability": "view",
      "type": "function",
      "constant": true
    }
  ],
  "bytecode": "0x608060405234801561001057600080fd5b50610fd3806100206000396000f3fe608060405234801561001057600080fd5b506004361061004c5760003560e01c80630e36521e146100515780631aecb28b146100815780632fdfdf791461009f57806381dc6fd2146100bb575b600080fd5b61006b600480360381019061006691906108c7565b6100ed565b6040516100789190610c4d565b60405180910390f35b610089610312565b6040516100969190610c2b565b60405180910390f35b6100b960048036038101906100b49190610908565b6104eb565b005b6100d560048036038101906100d09190610974565b61063d565b6040516100e493929190610c6f565b60405180910390f35b60606000808054905011610136576040517f08c379a000000000000000000000000000000000000000000000000000000000815260040161012d90610cb4565b60405180910390fd5b60005b6000805490508110156102d357826040516020016101579190610bfd565b60405160208183030381529060405280519060200120600082815481106101a7577f4e487b7100000000000000000000000000000000000000000000000000000000600052603260045260246000fd5b90600052602060002090600302016001016040516020016101c89190610c14565b6040516020818303038152906040528051906020012014156102c0576000818154811061021e577f4e487b7100000000000000000000000000000000000000000000000000000000600052603260045260246000fd5b9060005260206000209060030201600001805461023a90610e6d565b80601f016020809104026020016040519081016040528092919081815260200182805461026690610e6d565b80156102b35780601f10610288576101008083540402835291602001916102b3565b820191906000526020600020905b81548152906001019060200180831161029657829003601f168201915b505050505091505061030d565b80806102cb90610e9f565b915050610139565b506040518060400160405280601881526020017f4e6f206e656172627920686f73706974616c20666f756e64000000000000000081525090505b919050565b60606000805480602002602001604051908101604052809291908181526020016000905b828210156104e2578382906000526020600020906003020160405180606001604052908160008201805461036990610e6d565b80601f016020809104026020016040519081016040528092919081815260200182805461039590610e6d565b80156103e25780601f106103b7576101008083540402835291602001916103e2565b820191906000526020600020905b8154815290600101906020018083116103c557829003601f168201915b505050505081526020016001820180546103fb90610e6d565b80601f016020809104026020016040519081016040528092919081815260200182805461042790610e6d565b80156104745780601f1061044957610100808354040283529160200191610474565b820191906000526020600020905b81548152906001019060200180831161045757829003601f168201915b505050505081526020016002820160009054906101000a900473ffffffffffffffffffffffffffffffffffffffff1673ffffffffffffffffffffffffffffffffffffffff1673ffffffffffffffffffffffffffffffffffffffff168152505081526020019060010190610336565b50505050905090565b600060405180606001604052808481526020018381526020013373ffffffffffffffffffffffffffffffffffffffff16815250908060018154018082558091505060019003906000526020600020906003020160009091909190915060008201518160000190805190602001906105639291906107a7565b5060208201518160010190805190602001906105809291906107a7565b5060408201518160020160006101000a81548173ffffffffffffffffffffffffffffffffffffffff021916908373ffffffffffffffffffffffffffffffffffffffff160217905550505060016000805490506105dc9190610dbb565b6001826040516105ec9190610bfd565b9081526020016040518091039020819055507f1da943a0cbeb00759cfb56196fdfe53838d562124044c92abf9f54ce093ffe3a82823360405161063193929190610c6f565b60405180910390a15050565b6000818154811061064d57600080fd5b906000526020600020906003020160009150905080600001805461067090610e6d565b80601f016020809104026020016040519081016040528092919081815260200182805461069c90610e6d565b80156106e95780601f106106be576101008083540402835291602001916106e9565b820191906000526020600020905b8154815290600101906020018083116106cc57829003601f168201915b5050505050908060010180546106fe90610e6d565b80601f016020809104026020016040519081016040528092919081815260200182805461072a90610e6d565b80156107775780601f1061074c57610100808354040283529160200191610777565b820191906000526020600020905b81548152906001019060200180831161075a57829003601f168201915b5050505050908060020160009054906101000a900473ffffffffffffffffffffffffffffffffffffffff16905083565b8280546107b390610e6d565b90600052602060002090601f0160209004810192826107d5576000855561081c565b82601f106107ee57805160ff191683800117855561081c565b8280016001018555821561081c579182015b8281111561081b578251825591602001919060010190610800565b5b509050610829919061082d565b5090565b5b8082111561084657600081600090555060010161082e565b5090565b600061085d61085884610d05565b610cd4565b90508281526020810184848401111561087557600080fd5b610880848285610e2b565b509392505050565b600082601f83011261089957600080fd5b81356108a984826020860161084a565b91505092915050565b6000813590506108c181610f86565b92915050565b6000602082840312156108d957600080fd5b600082013567ffffffffffffffff8111156108f357600080fd5b6108ff84828501610888565b91505092915050565b6000806040838503121561091b57600080fd5b600083013567ffffffffffffffff81111561093557600080fd5b61094185828601610888565b925050602083013567ffffffffffffffff81111561095e57600080fd5b61096a85828601610888565b9150509250929050565b60006020828403121561098657600080fd5b6000610994848285016108b2565b91505092915050565b60006109a98383610ba6565b905092915050565b6109ba81610def565b82525050565b6109c981610def565b82525050565b60006109da82610d5a565b6109e48185610d7d565b9350836020820285016109f685610d35565b8060005b85811015610a325784840389528151610a13858261099d565b9450610a1e83610d70565b925060208a019950506001810190506109fa565b50829750879550505050505092915050565b6000610a4f82610d65565b610a598185610d8e565b9350610a69818560208601610e3a565b610a7281610f75565b840191505092915050565b6000610a8882610d65565b610a928185610d9f565b9350610aa2818560208601610e3a565b610aab81610f75565b840191505092915050565b6000610ac182610d65565b610acb8185610db0565b9350610adb818560208601610e3a565b80840191505092915050565b60008154610af481610e6d565b610afe8186610db0565b94506001821660008114610b195760018114610b2a57610b5d565b60ff19831686528186019350610b5d565b610b3385610d45565b60005b83811015610b5557815481890152600182019150602081019050610b36565b838801955050505b50505092915050565b6000610b73601783610d9f565b91507f4e6f20686f73706974616c7320726567697374657265640000000000000000006000830152602082019050919050565b60006060830160008301518482036000860152610bc38282610a44565b91505060208301518482036020860152610bdd8282610a44565b9150506040830151610bf260408601826109b1565b508091505092915050565b6000610c098284610ab6565b915081905092915050565b6000610c208284610ae7565b915081905092915050565b60006020820190508181036000830152610c4581846109cf565b905092915050565b60006020820190508181036000830152610c678184610a7d565b905092915050565b60006060820190508181036000830152610c898186610a7d565b90508181036020830152610c9d8185610a7d565b9050610cac60408301846109c0565b949350505050565b60006020820190508181036000830152610ccd81610b66565b9050919050565b6000604051905081810181811067ffffffffffffffff82111715610cfb57610cfa610f46565b5b8060405250919050565b600067ffffffffffffffff821115610d2057610d1f610f46565b5b601f19601f8301169050602081019050919050565b6000819050602082019050919050565b60008190508160005260206000209050919050565b600081519050919050565b600081519050919050565b6000602082019050919050565b600082825260208201905092915050565b600082825260208201905092915050565b600082825260208201905092915050565b600081905092915050565b6000610dc682610e21565b9150610dd183610e21565b925082821015610de457610de3610ee8565b5b828203905092915050565b6000610dfa82610e01565b9050919050565b600073ffffffffffffffffffffffffffffffffffffffff82169050919050565b6000819050919050565b82818337600083830152505050565b60005b83811015610e58578082015181840152602081019050610e3d565b83811115610e67576000848401525b50505050565b60006002820490506001821680610e8557607f821691505b60208210811415610e9957610e98610f17565b5b50919050565b6000610eaa82610e21565b91507fffffffffffffffffffffffffffffffffffffffffffffffffffffffffffffffff821415610edd57610edc610ee8565b5b600182019050919050565b7f4e487b7100000000000000000000000000000000000000000000000000000000600052601160045260246000fd5b7f4e487b7100000000000000000000000000000000000000000000000000000000600052602260045260246000fd5b7f4e487b7100000000000000000000000000000000000000000000000000000000600052604160045260246000fd5b6000601f19601f8301169050919050565b610f8f81610e21565b8114610f9a57600080fd5b5056fea264697066735822122073e33d2352b6086f668850c199ed11ecbfd2bdf2e92a67e38ef415b4d365311c64736f6c63430008000033",
  "immutableReferences": {},
  "source": "// SPDX-License-Identifier: MIT\npragma solidity ^0.8.0;\n\ncontract HospitalBlockchain {\n    struct Hospital {\n        string name;\n        string location; // Simplified as a string; in real applications, we might use coordinates\n        address hospitalAddress;\n    }\n\n    // State variables\n    Hospital[] public hospitals;\n    mapping(string => uint) private locationIndex;\n\n    // Events\n    event HospitalRegistered(string name, string location, address hospitalAddress);\n    event NearestHospitalFound(string name, string location, address hospitalAddress);\n\n    // Register a new hospital\n    function registerHospital(string memory name, string memory location) public {\n        hospitals.push(Hospital(name, location, msg.sender));\n        locationIndex[location] = hospitals.length - 1; // Mapping location to index for reference\n        emit HospitalRegistered(name, location, msg.sender);\n    }\n\n    // Find the nearest hospital based on location (simplified)\n    function findNearestHospital(string memory userLocation) public view returns (string memory) {\n        require(hospitals.length > 0, \"No hospitals registered\");\n\n        // For demonstration, just return the first hospital with the given location\n        // Replace this with actual distance calculation logic if possible\n        for (uint i = 0; i < hospitals.length; i++) {\n            if (keccak256(abi.encodePacked(hospitals[i].location)) == keccak256(abi.encodePacked(userLocation))) {\n                return hospitals[i].name;\n            }\n        }\n        \n        // If no matching hospital is found\n        return \"No nearby hospital found\";\n    }\n\n    // View all registered hospitals\n    function getHospitals() public view returns (Hospital[] memory) {\n        return hospitals;\n    }\n}\n",
  "sourcePath": "/Users/animeshkar/TrafficHospitalBlockchain/contracts/HospitalBlockchain.sol",
  "compiler": {
    "name": "solc",
    "version": "0.8.0+commit.c7dfd78e.Emscripten.clang"
  },
  "schemaVersion": "3.4.16",
  "updatedAt": "2024-11-01T16:47:34.355Z",
  "networkType": "ethereum",
  "devdoc": {
    "kind": "dev",
    "methods": {},
    "version": 1
  },
  "userdoc": {
    "kind": "user",
    "methods": {},
    "version": 1
  }
}