{
  "contractName": "TrafficBlockchain",
  "abi": [
    {
      "anonymous": false,
      "inputs": [
        {
          "indexed": true,
          "internalType": "address",
          "name": "reporter",
          "type": "address"
        },
        {
          "indexed": false,
          "internalType": "string",
          "name": "location",
          "type": "string"
        },
        {
          "indexed": false,
          "internalType": "uint256",
          "name": "timestamp",
          "type": "uint256"
        }
      ],
      "name": "AccidentReported",
      "type": "event"
    },
    {
      "inputs": [
        {
          "internalType": "uint256",
          "name": "",
          "type": "uint256"
        }
      ],
      "name": "accidentReports",
      "outputs": [
        {
          "internalType": "string",
          "name": "location",
          "type": "string"
        },
        {
          "internalType": "uint256",
          "name": "timestamp",
          "type": "uint256"
        },
        {
          "internalType": "address",
          "name": "reporter",
          "type": "address"
        }
      ],
      "stateMutability": "view",
      "type": "function",
      "constant": true
    },
    {
      "inputs": [
        {
          "internalType": "address",
          "name": "",
          "type": "address"
        },
        {
          "internalType": "uint256",
          "name": "",
          "type": "uint256"
        }
      ],
      "name": "userReports",
      "outputs": [
        {
          "internalType": "uint256",
          "name": "",
          "type": "uint256"
        }
      ],
      "stateMutability": "view",
      "type": "function",
      "constant": true
    },
    {
      "inputs": [
        {
          "internalType": "string",
          "name": "location",
          "type": "string"
        }
      ],
      "name": "reportAccident",
      "outputs": [],
      "stateMutability": "nonpayable",
      "type": "function"
    },
    {
      "inputs": [],
      "name": "getAllReports",
      "outputs": [
        {
          "components": [
            {
              "internalType": "string",
              "name": "location",
              "type": "string"
            },
            {
              "internalType": "uint256",
              "name": "timestamp",
              "type": "uint256"
            },
            {
              "internalType": "address",
              "name": "reporter",
              "type": "address"
            }
          ],
          "internalType": "struct TrafficBlockchain.AccidentReport[]",
          "name": "",
          "type": "tuple[]"
        }
      ],
      "stateMutability": "view",
      "type": "function",
      "constant": true
    },
    {
      "inputs": [
        {
          "internalType": "address",
          "name": "user",
          "type": "address"
        }
      ],
      "name": "getUserReports",
      "outputs": [
        {
          "components": [
            {
              "internalType": "string",
              "name": "location",
              "type": "string"
            },
            {
              "internalType": "uint256",
              "name": "timestamp",
              "type": "uint256"
            },
            {
              "internalType": "address",
              "name": "reporter",
              "type": "address"
            }
          ],
          "internalType": "struct TrafficBlockchain.AccidentReport[]",
          "name": "",
          "type": "tuple[]"
        }
      ],
      "stateMutability": "view",
      "type": "function",
      "constant": true
    }
  ],
  "bytecode": "0x608060405234801561001057600080fd5b50610f4b806100206000396000f3fe608060405234801561001057600080fd5b50600436106100575760003560e01c80635a345e461461005c57806370a05afc1461008c57806386b72c8a146100bc578063f3d3ddfa146100d8578063f805913e146100f6575b600080fd5b6100766004803603810190610071919061097d565b610128565b6040516100839190610c3a565b60405180910390f35b6100a660048036038101906100a19190610954565b610159565b6040516100b39190610baa565b60405180910390f35b6100d660048036038101906100d191906109b9565b610419565b005b6100e06105b5565b6040516100ed9190610baa565b60405180910390f35b610110600480360381019061010b91906109fa565b610706565b60405161011f93929190610bfc565b60405180910390f35b6001602052816000526040600020818154811061014457600080fd5b90600052602060002001600091509150505481565b60606000600160008473ffffffffffffffffffffffffffffffffffffffff1673ffffffffffffffffffffffffffffffffffffffff16815260200190815260200160002090506000818054905067ffffffffffffffff8111156101e4577f4e487b7100000000000000000000000000000000000000000000000000000000600052604160045260246000fd5b60405190808252806020026020018201604052801561021d57816020015b61020a6107e8565b8152602001906001900390816102025790505b50905060005b828054905081101561040e57600083828154811061026a577f4e487b7100000000000000000000000000000000000000000000000000000000600052603260045260246000fd5b9060005260206000200154815481106102ac577f4e487b7100000000000000000000000000000000000000000000000000000000600052603260045260246000fd5b90600052602060002090600302016040518060600160405290816000820180546102d590610dce565b80601f016020809104026020016040519081016040528092919081815260200182805461030190610dce565b801561034e5780601f106103235761010080835404028352916020019161034e565b820191906000526020600020905b81548152906001019060200180831161033157829003601f168201915b50505050508152602001600182015481526020016002820160009054906101000a900473ffffffffffffffffffffffffffffffffffffffff1673ffffffffffffffffffffffffffffffffffffffff1673ffffffffffffffffffffffffffffffffffffffff16815250508282815181106103f0577f4e487b7100000000000000000000000000000000000000000000000000000000600052603260045260246000fd5b6020026020010181905250808061040690610e00565b915050610223565b508092505050919050565b600060405180606001604052808381526020014281526020013373ffffffffffffffffffffffffffffffffffffffff1681525090506000819080600181540180825580915050600190039060005260206000209060030201600090919091909150600082015181600001908051906020019061049692919061081f565b506020820151816001015560408201518160020160006101000a81548173ffffffffffffffffffffffffffffffffffffffff021916908373ffffffffffffffffffffffffffffffffffffffff1602179055505050600160003373ffffffffffffffffffffffffffffffffffffffff1673ffffffffffffffffffffffffffffffffffffffff168152602001908152602001600020600160008054905061053b9190610d1c565b90806001815401808255809150506001900390600052602060002001600090919091909150553373ffffffffffffffffffffffffffffffffffffffff167fa5bd937e2d580b27a2db6bf3bbd926ff880c01a4ad47a31e957374ebaac7c27683426040516105a9929190610bcc565b60405180910390a25050565b60606000805480602002602001604051908101604052809291908181526020016000905b828210156106fd578382906000526020600020906003020160405180606001604052908160008201805461060c90610dce565b80601f016020809104026020016040519081016040528092919081815260200182805461063890610dce565b80156106855780601f1061065a57610100808354040283529160200191610685565b820191906000526020600020905b81548152906001019060200180831161066857829003601f168201915b50505050508152602001600182015481526020016002820160009054906101000a900473ffffffffffffffffffffffffffffffffffffffff1673ffffffffffffffffffffffffffffffffffffffff1673ffffffffffffffffffffffffffffffffffffffff1681525050815260200190600101906105d9565b50505050905090565b6000818154811061071657600080fd5b906000526020600020906003020160009150905080600001805461073990610dce565b80601f016020809104026020016040519081016040528092919081815260200182805461076590610dce565b80156107b25780601f10610787576101008083540402835291602001916107b2565b820191906000526020600020905b81548152906001019060200180831161079557829003601f168201915b5050505050908060010154908060020160009054906101000a900473ffffffffffffffffffffffffffffffffffffffff16905083565b60405180606001604052806060815260200160008152602001600073ffffffffffffffffffffffffffffffffffffffff1681525090565b82805461082b90610dce565b90600052602060002090601f01602090048101928261084d5760008555610894565b82601f1061086657805160ff1916838001178555610894565b82800160010185558215610894579182015b82811115610893578251825591602001919060010190610878565b5b5090506108a191906108a5565b5090565b5b808211156108be5760008160009055506001016108a6565b5090565b60006108d56108d084610c86565b610c55565b9050828152602081018484840111156108ed57600080fd5b6108f8848285610d8c565b509392505050565b60008135905061090f81610ee7565b92915050565b600082601f83011261092657600080fd5b81356109368482602086016108c2565b91505092915050565b60008135905061094e81610efe565b92915050565b60006020828403121561096657600080fd5b600061097484828501610900565b91505092915050565b6000806040838503121561099057600080fd5b600061099e85828601610900565b92505060206109af8582860161093f565b9150509250929050565b6000602082840312156109cb57600080fd5b600082013567ffffffffffffffff8111156109e557600080fd5b6109f184828501610915565b91505092915050565b600060208284031215610a0c57600080fd5b6000610a1a8482850161093f565b91505092915050565b6000610a2f8383610b3c565b905092915050565b610a4081610d50565b82525050565b610a4f81610d50565b82525050565b6000610a6082610cc6565b610a6a8185610ce9565b935083602082028501610a7c85610cb6565b8060005b85811015610ab85784840389528151610a998582610a23565b9450610aa483610cdc565b925060208a01995050600181019050610a80565b50829750879550505050505092915050565b6000610ad582610cd1565b610adf8185610cfa565b9350610aef818560208601610d9b565b610af881610ed6565b840191505092915050565b6000610b0e82610cd1565b610b188185610d0b565b9350610b28818560208601610d9b565b610b3181610ed6565b840191505092915050565b60006060830160008301518482036000860152610b598282610aca565b9150506020830151610b6e6020860182610b8c565b506040830151610b816040860182610a37565b508091505092915050565b610b9581610d82565b82525050565b610ba481610d82565b82525050565b60006020820190508181036000830152610bc48184610a55565b905092915050565b60006040820190508181036000830152610be68185610b03565b9050610bf56020830184610b9b565b9392505050565b60006060820190508181036000830152610c168186610b03565b9050610c256020830185610b9b565b610c326040830184610a46565b949350505050565b6000602082019050610c4f6000830184610b9b565b92915050565b6000604051905081810181811067ffffffffffffffff82111715610c7c57610c7b610ea7565b5b8060405250919050565b600067ffffffffffffffff821115610ca157610ca0610ea7565b5b601f19601f8301169050602081019050919050565b6000819050602082019050919050565b600081519050919050565b600081519050919050565b6000602082019050919050565b600082825260208201905092915050565b600082825260208201905092915050565b600082825260208201905092915050565b6000610d2782610d82565b9150610d3283610d82565b925082821015610d4557610d44610e49565b5b828203905092915050565b6000610d5b82610d62565b9050919050565b600073ffffffffffffffffffffffffffffffffffffffff82169050919050565b6000819050919050565b82818337600083830152505050565b60005b83811015610db9578082015181840152602081019050610d9e565b83811115610dc8576000848401525b50505050565b60006002820490506001821680610de657607f821691505b60208210811415610dfa57610df9610e78565b5b50919050565b6000610e0b82610d82565b91507fffffffffffffffffffffffffffffffffffffffffffffffffffffffffffffffff821415610e3e57610e3d610e49565b5b600182019050919050565b7f4e487b7100000000000000000000000000000000000000000000000000000000600052601160045260246000fd5b7f4e487b7100000000000000000000000000000000000000000000000000000000600052602260045260246000fd5b7f4e487b7100000000000000000000000000000000000000000000000000000000600052604160045260246000fd5b6000601f19601f8301169050919050565b610ef081610d50565b8114610efb57600080fd5b50565b610f0781610d82565b8114610f1257600080fd5b5056fea2646970667358221220361771c77e58f1b2c79afb0247bbef2f729fedf515c8340186ea16029e0b7c5764736f6c63430008000033",
  "immutableReferences": {},
  "source": "// SPDX-License-Identifier: MIT\npragma solidity ^0.8.0;\n\ncontract TrafficBlockchain {\n    struct AccidentReport {\n        string location;\n        uint256 timestamp;\n        address reporter;\n    }\n\n    // State variables\n    AccidentReport[] public accidentReports;\n    mapping(address => uint256[]) public userReports;\n\n    // Events\n    event AccidentReported(address indexed reporter, string location, uint256 timestamp);\n\n    // Function to report an accident\n    function reportAccident(string memory location) public {\n        AccidentReport memory newReport = AccidentReport({\n            location: location,\n            timestamp: block.timestamp,\n            reporter: msg.sender\n        });\n\n        accidentReports.push(newReport);\n        userReports[msg.sender].push(accidentReports.length - 1);\n\n        emit AccidentReported(msg.sender, location, block.timestamp);\n    }\n\n    // Get all accident reports\n    function getAllReports() public view returns (AccidentReport[] memory) {\n        return accidentReports;\n    }\n\n    // Get reports by a specific user\n    function getUserReports(address user) public view returns (AccidentReport[] memory) {\n        uint256[] storage reportIndices = userReports[user];\n        AccidentReport[] memory reports = new AccidentReport[](reportIndices.length);\n        \n        for (uint256 i = 0; i < reportIndices.length; i++) {\n            reports[i] = accidentReports[reportIndices[i]];\n        }\n        return reports;\n    }\n}\n",
  "sourcePath": "/Users/animeshkar/TrafficHospitalBlockchain/contracts/TrafficBlockchain.sol",
  "compiler": {
    "name": "solc",
    "version": "0.8.0+commit.c7dfd78e.Emscripten.clang"
  },
  "schemaVersion": "3.4.16",
  "updatedAt": "2024-11-01T16:47:34.359Z",
  "networkType": "ethereum",
  "devdoc": {
    "kind": "dev",
    "methods": {},
    "version": 1
  },
  "userdoc": {
    "kind": "user",
    "methods": {},
    "version": 1
  }
}