{
  "contractName": "HospitalBlockchain",
  "abi": [
    {
      "inputs": [
        {
          "internalType": "string",
          "name": "location",
          "type": "string"
        }
      ],
      "name": "findNearestHospital",
      "outputs": [
        {
          "internalType": "string",
          "name": "",
          "type": "string"
        }
      ],
      "stateMutability": "view",
      "type": "function"
    }
  ],
  "bytecode": "0x608060405234801561000f575f80fd5b506102c88061001d5f395ff3fe608060405234801561000f575f80fd5b5060043610610029575f3560e01c80630e36521e1461002d575b5f80fd5b610047600480360381019061004291906101b1565b61005d565b6040516100549190610272565b60405180910390f35b6060919050565b5f604051905090565b5f80fd5b5f80fd5b5f80fd5b5f80fd5b5f601f19601f8301169050919050565b7f4e487b71000000000000000000000000000000000000000000000000000000005f52604160045260245ffd5b6100c38261007d565b810181811067ffffffffffffffff821117156100e2576100e161008d565b5b80604052505050565b5f6100f4610064565b905061010082826100ba565b919050565b5f67ffffffffffffffff82111561011f5761011e61008d565b5b6101288261007d565b9050602081019050919050565b828183375f83830152505050565b5f61015561015084610105565b6100eb565b90508281526020810184848401111561017157610170610079565b5b61017c848285610135565b509392505050565b5f82601f83011261019857610197610075565b5b81356101a8848260208601610143565b91505092915050565b5f602082840312156101c6576101c561006d565b5b5f82013567ffffffffffffffff8111156101e3576101e2610071565b5b6101ef84828501610184565b91505092915050565b5f81519050919050565b5f82825260208201905092915050565b5f5b8381101561022f578082015181840152602081019050610214565b5f8484015250505050565b5f610244826101f8565b61024e8185610202565b935061025e818560208601610212565b6102678161007d565b840191505092915050565b5f6020820190508181035f83015261028a818461023a565b90509291505056fea264697066735822122091b9568230781d951b7e91f1317b961b507a2d305fbf9e32d7d90066aa138da464736f6c63430008150033",
  "immutableReferences": {},
  "source": "// SPDX-License-Identifier: MIT\npragma solidity ^0.8.0;\n\ncontract HospitalBlockchain {\n    // Define state variables, events, and functions\n    function findNearestHospital(string memory location) public view returns (string memory) {\n        // Implementation for finding the nearest hospital\n    }\n}\n",
  "sourcePath": "/Users/animeshkar/TrafficHospitalBlockchain/contracts/HospitalBlockchain.sol",
  "compiler": {
    "name": "solc",
    "version": "0.8.21+commit.d9974bed.Emscripten.clang"
  },
  "schemaVersion": "3.4.16",
  "updatedAt": "2024-10-25T08:03:04.284Z",
  "devdoc": {
    "kind": "dev",
    "methods": {},
    "version": 1
  },
  "userdoc": {
    "kind": "user",
    "methods": {},
    "version": 1
  }
}